:08000000C6100400000000001E
:04005400C6020000E0
:04007400AE020000D8
:100400003220EF00C3202000008041001040BA00DD
:100410000160EF0000000600203E00003E2D0000BD
:100420002E2D00002E2D00002E2D00002E2000006D
:100430002D2D00003E2000000D0000003220EF00B6
:10044000A3222000008041001040BA000160EF00AC
:10045000000006002053000069730000746500006E
:100460006D20000062610000736C00006164000098
:10047000692E00002E2E0000200D0000000000005C
:100480003220EF00C3242000008041001040BA0059
:100490000160EF00000006002D3E00004B3D000013
:1004A00025640000203C00003E2000005345000071
:1004B0004E3D00003E200000563D0000253100006A
:1004C0002E33000066200000205500003D2500006E
:1004D000332E000031660000200D000000000000F7
:1004E0003220EF00C3272000008041001040BA00F6
:1004F0000160EF0000000600444100004E41000092
:100500004E4900004D3A00002042000061F000001A
:100510006C6100006E640000FD2E00002E2E0000B5
:10052000000000003220EF00E3292000008041009D
:100530001040BA000160EF000000060053450000C3
:100540004E5300004F520000205600003D25000091
:10055000312E0000336600000000000000A0FE0005
:10056000C042A800C242AE00030037000001F800FC
:100570001608F900020037000001F8001808F90019
:100580008660A9000080FE000040060000A0FE007A
:10059000E38120008301E9008301E8002202AE002C
:1005A000FEFF3700301180008049780000C0B300A2
:1005B00090419800134178006D14E1004220AE0094
:1005C000F5FF37008049EB0003000900301180007F
:1005D0008560A9008560A9000080FE00004006003B
:1005E0000000E0004220AF00040037009B0F09002C
:1005F000000000000000E900FCFF3A0000000600D7
:10060000851F7800C500200004000900B51F780090
:100610008004EB0083846800010378008002780086
:1006200003047800820378008180D2000180FD00FD
:100630008180FB000100E0004E0032008381D20087
:100640000380FD008381FB000300E00049003200CD
:100650000000EB0003C0500003003900F047B00079
:1006600044003100030037001048B1004100390058
:100670004000320085007800060178000270A0007A
:10068000F20FB200F80FB2000870A0009A0120002B
:100690008001EB000002EB00878050000801590048
:1006A000020033000400310004003A00878040005B
:1006B00008014900010037000400A0000A05E90014
:1006C000070032004200A9008180D2000281D200DE
:1006D0004200A9000482D2008381D200EEFF3700DD
:1006E0000005EB000380A70001003700060037007B
:1006F0004200A9008381D3000370A1000482D300CB
:100700000A85D200020037000000E900190032001B
:100710000AF0A700050039008180D2000281D200D2
:100720008780500008015900090039000402E800E0
:1007300007003A008301E80005003A000000E800E5
:100740000C003200020037000000E900090032000E
:100750000080FD008080D30001F0A00009F0A60019
:1007600001F0A1000370A10081C0690004007800BD
:1007700003003700000020000100200000003700C7
:100780004501200004000900CF127800CF02780054
:1007900000000600851F7800C50020000300090046
:1007A000B51F78008004EB00080028004300AF006C
:1007B00083016C000000E00003003A00FAFF27000C
:1007C0000A8560004220AE00010578008A85690034
:1007D0000103780083037800030678004220A90013
:1007E0004200A9000683D2000680FD00F60FB20089
:1007F0000600E000A10032004220A9004200A9004A
:100800008783D2000780FD00F70FB2000700E000E9
:100810009F0032004220A9004200A9000638E100F2
:100820009C003200A30033000900A1000910A000C1
:100830000684530007037800F10FB2000170A00096
:10084000F30FB2000370A000870220000838E10017
:10085000110033004220A9004200A9008180D3008A
:100860000080D3000804E900FAFF3A000D003700C9
:10087000870220000838E100090033004220A90067
:100880004200A9008381D3000281D3000804E9005B
:10089000FAFF3A000F00370002007800830078006A
:1008A000430037000BF0A600110037000940A700F5
:1008B0008C0578000000EA000200320081C0EA00E6
:1008C000010037008100EA000940A7002B00370033
:1008D000070037000BF0A600050037000201EA0010
:1008E0000200320083C1EA00010037008301EA0000
:1008F000F50FB2004220A9004200A900020040000A
:1009000083C048004200AF000930A0000900A700E2
:10091000090037000910A700010037000B0037005D
:100920000BF0A700150037000930A7002900370099
:100930000960A0001E0037000BF0A7000F00370071
:100940000930A70023003700190037000920A10053
:100950000BF0A700040037008A0578000930A700D3
:100960001C003700360037000940A00001C8B20063
:100970000170A700CDFF37008A057800F10FB200A3
:10098000810370000A0032000170A70008003700E0
:100990004220A9004200A9000080D2008180D2003C
:1009A0000603E9004220AF0031003700F6FF3700B0
:1009B0000900A7008A0578000910A7008C057800B7
:1009C0000950A6001A0037000AF0A7000080A00016
:1009D0001B0037004200A80081C0D3000080D30074
:1009E0004200AF000950A0000603E80020003200DA
:1009F0000950A600080037000000E80006003A0091
:100A00008140E80004003A0081C0D3000080D30098
:100A10000603E800160032000900A7008A057800E6
:100A20000910A7008C0578004220AF0010003700A5
:100A30000960A7008A0578000970A7008C05780076
:100A400001017000230032000170A1000680FD004A
:100A50004220A9004200A9000683D30081006B0058
:100A600001F0A0000BF0A60001F0A1001900370072
:100A70000000200001002000160037000AF0A70047
:100A800083016C00020078008300780011003700B9
:100A900010003700F30FB2000370A000F10FB20096
:100AA0000170A0000BF0A7000370A1000920A000B6
:100AB00088FF370007045300F10FB2000170A00057
:100AC000F30FB2000370A0000910A1000900A000FC
:100AD00067FF37002501200003000900CF127800CE
:100AE000CF02780000000600851F7800C5002000B6
:100AF00004000900B51F7800000278008102780028
:100B000083037800020378004200A9004220A90074
:100B10008180D2000180FD00F10FB2000100E000F1
:100B20004B0032004200A9004220A9008381D2007C
:100B30000380FD00F30FB2000300E0004400320028
:100B40000080FB0001C0410004003100F007B1004B
:100B50003F0032003E003900020037001048B0006C
:100B60003B00310007856A004200A9004220A9002D
:100B7000F50FB2000570A0004200A900F70FB20007
:100B80000770A0000621B800062CB80083014C00B5
:100B9000890078004200AF008100E8004200A9000F
:100BA000043CB80083014C0081804C00072CB80045
:100BB00081004C000000E8000100E0004220AF008E
:100BC00001003700030037000300E0004220AF00BF
:100BD0000500370001F0A700030037008381D20031
:100BE0008180D2000000E900010178004200A900E4
:100BF0000370A6000900370007F02F00878161000D
:100C00000310B000600149000200E00003003A0058
:100C10000300E00001003A000000E8000080FD0051
:100C20004200A9004220A9008080D3000AF0A7005A
:100C300001F0A00002F0A1000280FD0081406900E7
:100C40000380FD00034178000200780003003700B4
:100C500000002000010020000000370045012000B6
:100C600004000900CF127800CF02780000000600CF
:100C7000851F78008102780000017800640B200055
:100C80008180D2000180FD00F10FB20001425200CC
:100C9000854178000370A000F30FB2000000EB0064
:100CA0008000EB004200A9008381D3000281D300C1
:100CB0008180D3000080D3000402E900F9FF3A00EC
:100CC00005F0A600060037000000EA00020032002E
:100CD0008180EA00020037008100EA00000037004E
:100CE000CF02780000000600851F7800861F78007C
:100CF0000049800011498000A2702D0033072400B4
:100D000000030200000000004300A800000178007A
:100D1000810178000000200001F82300CA030200CE
:100D200000000000800278000103780005007800D0
:100D30008600780002002000A35F240074050200F2
:100D40000000000038060200000000000000BE00A5
:100D50004F037800CF02780000000600851F78005E
:100D6000861F78001809F8002009F9001A09F80010
:100D70002209F900740602000000000080027800D9
:100D800001037800950C88004F037800CF027800AB
:100D900000000600851F7800861F78001809F800FB
:100DA0002009F9001A09F8002209F9007406020066
:100DB000000000008002780001037800050C880024
:100DC0004F037800CF02780000000600851F7800EE
:100DD000861F78001809F8002009F9001A09F800A0
:100DE0002209F90074060200000000008002780069
:100DF00001037800C50C88004F037800CF0278000B
:100E000000000600851F7800861F78001809F8008A
:100E10002009F9001A09F8002209F90074060200F5
:100E2000000000008002780001037800350C880083
:100E30004F037800CF02780000000600851F78007D
:100E4000861F78001809F8002009F9001A09F8002F
:100E50002209F900740602000000000080027800F8
:100E600001037800650C88004F037800CF027800FA
:100E7000000006001829EF0004002400D448880070
:100E8000AE060200000000001829EF000400240054
:100E9000D4488800CA060200000000001829EF00AC
:100EA00004002400D4488800E60602000000000088
:100EB0001829EF0004002400D4488800020702002B
:100EC000000000001829EF0004002400D448880026
:100ED0001E0702000000000000000600851F7800C9
:100EE000C500200003000900B51F7800000278004B
:100EF0008102780002037800830378000000EB0091
:100F00008000EB000001EB008001EB000800A10075
:100F100007F0A600050037000800A0000402EA0060
:100F20008582EA000683EA008783EA00850472006E
:100F300002003A0087047300150032003947200090
:100F40000340A7000B0037004200A9000482D20032
:100F50008582D2000683D2008783D2000080D2002F
:100F60008180D2000281D2008381D2008904E9000D
:100F7000F3FF3A00C44CDD004200A90009F0A100D3
:100F80000340A10083816C000800A70003F0A000CB
:100F90002501200003000900CF127800CF0278005D
:100FA00000000600881F78002801200004000900C6
:100FB000B81F78008005EB006066B8000304780075
:100FC00087047800FA7F20004200A9004220A9008F
:100FD00044C4DE00080465000800E000710032002F
:100FE0004200A9004220A900C4CCDE0089046500AB
:100FF0000900E0006B0032000884440009B0A7003B
:1010000004003700F83FB100660032006500390087
:10101000030037001A40200085424500610031007E
:10102000878669004200A9004220A900F300B200AF
:101030000340A000F700B2000740A000881F78001E
:101040000124B800002DB8000A0544008B854C002F
:101050000C80B0000224B8008B0544000C864C00C4
:10106000012CB8000005EB008B0544000C864C00F9
:101070000A80B0000034B8008B0544000C864C0098
:101080000A80B0008005EB000324B8000C06440081
:101090000A854C000B80B000022CB8000C064400FE
:1010A0000A854C000B80B0000134B8000C064400E7
:1010B0000A854C000B80B000003CB8000C064400D0
:1010C0000A854C000B80B0000C0078000006EB0095
:1010D000032CB8000A0544008B854C000C80B0003E
:1010E0000234B8000A0544008B854C000C80B00027
:1010F0000334B8008B0544000C864C00013CB8005A
:101100000A0544008B854C000C80B000023CB800FE
:101110008B0544000C864C00033CB8000C064400D0
:101120008A0078000B0178008C01780054002000C0
:101130004200A9008381D3000281D3008180D300C3
:101140000080D3000402E900F9FF3A004F04780060
:101150000804E800010370000100320002003700BB
:1011600003037100080032000340A70006003700A7
:101170004200A9000080D2008180D2000281D2000A
:101180008381D2000804E9004444DD0003F0A1009B
:101190000DF0A70003F0A0000340A10083016C0044
:1011A000030037006000B8006001B800000037009D
:1011B000A8012000040009004F1478004F047800B3
:1011C00000000600851F7800861F78000302780063
:1011D000030378004200A90044A2DE00F57F20004E
:1011E0000482620003003A006000B8000001EB00D6
:1011F000130037000438B100F300B20037002000BC
:101200004200A9000080D2008180D2000281D20079
:101210008381D2008703E900F9FF3A0001007800DA
:10122000820078000370A1000480FD004200A90044
:101230000482D30006F0A70004F0A00003016A00B6
:101240004F037800CF02780000000600851F780069
:10125000C500200003000900B51F780000027800D7
:101260008102780002037800830378000000EB001D
:101270008000EB000001EB008001EB000800A10002
:1012800007F0A600050037000800A0000402EA00ED
:101290008582EA000683EA008783EA0085047200FB
:1012A00002003A008704730015003200394720001D
:1012B0000340A7000B0037004200A9000482D200BF
:1012C0008582D2000683D2008783D2000080D200BC
:1012D0008180D2000281D2008381D2008904E9009A
:1012E000F3FF3A00C44CDD004200A90009F0A10060
:1012F0000340A10083816C000800A70003F0A00058
:101300002501200003000900CF127800CF027800E9
:1013100000000600881F7800280120000400090052
:10132000B81F780087866900030478008704780076
:10133000FA7F20004200A9004220A90044C4DE0038
:10134000080465000800E0006C0032004200A900BB
:101350004220A900C4CCDE00890465000900E00039
:10136000660032000005EB00090654000300390056
:10137000FC3FB00061003100040037001B4020003A
:101380000B0656005D0039005C0032000004EB00E3
:101390008004EB000005EB008005EB00F301B200D8
:1013A0000340A000F701B2000740A0008C1F7800A6
:1013B0006C0320000400500085805800060159008D
:1013C00087815900020033000600310006003A0010
:1013D00004004000858048000601490087814900DB
:1013E000010037000800A0000C06E9000B003200E5
:1013F0004200A9000080D2008180D2000281D20088
:101400008381D2004200A9000884D2008984D200DE
:101410000A85D2008B85D200E6FF37004F067800A0
:101420000B50A70001003700060037004200A9005A
:101430008B85D3000A85D3008984D3000884D30028
:10144000030037000C06E9004200A9002B0032001F
:101450004200AF00090037000080D2008180D20036
:101460000281D2008381D20004025000858258009C
:101470000603590087835900150039000804E80065
:1014800013003A008904E80011003A000A05E80058
:101490000F003A008B05E8000D003A000C06E8004A
:1014A000160032000A0037000C06E9001300320073
:1014B0000B40A700060037004200A9000884D200B4
:1014C0008984D2000A85D2008B85D200F8FF3700CC
:1014D0004466DD004200A9000CF0A1000DF0A70059
:1014E0000CF0A0000B40A1008B016E000A017800F7
:1014F000890078000800780005003700000020000F
:10150000010020000200200003002000000037003E
:10151000A8012000040009004F1478004F0478004F
:1015200000000600851F7800861F7800871F78005E
:10153000C022A8004E00090000000000C022A9003F
:10154000C422A9000021EF00B44080006020E10027
:1015500024003400C44080006020E10021003400F9
:10156000C4408000B340800003005200A0408800C7
:10157000A04080008001EB0000F0A7008081EB001C
:1015800083007800030178002609020000000000B3
:10159000040020000500200006002000D7042400DD
:1015A0008A09020000000000000278008102780031
:1015B000020378008303780000002000010020006F
:1015C0000200200003002400D207020000000000F7
:1015D000E2080200000000000100780082007800AC
:1015E00000003700CF0378004F037800CF02780067
:1015F00000000600851F7800861F7800871F78008E
:101600000382680004F0A600060037004200A9002B
:101610004220A90001F0A600260037004200A800E1
:10162000240037000102780080027800030378006C
:10163000820378008180D2000180FD008381D20086
:101640000380FD0081C051000500320004F0A600B7
:10165000180037001000200042E0B60015003700E7
:1016600084407800864178000170A1000370A100D9
:1016700081C051000500320004F0A6000D003700C3
:101680001000200042E0B6000A00370085805300B9
:101690000500320004F0A60006003700100020000C
:1016A00042E0B600030037004200A9000100370005
:1016B00000003700CF0378004F037800CF02780096
:1016C00000000600851F7800C50020000300090007
:1016D000B51F780000F0A6000C0037000000EA00FB
:1016E0000480A00004F0A60008003700801F7800E6
:1016F000D00220002322AF00FEFF37002011880017
:101700004F0078000480A1000860ED008002EB002B
:10171000800378008404780004F0A1000404E00051
:1017200006003A0009F0A70002003700050020007B
:101730000F003700050020000D003700E642520080
:101740000A0039000003200009F0A6000002200072
:101750002322AF00FEFF3700201188008502E90038
:10176000FBFF3B0055002000010037008402780099
:10177000640020000580A7000402E80005E0A00046
:1017800009F0A70005F0A00008712200110009006F
:101790008883D8000E0C020000000000810378004E
:1017A000883E2000110009008883D8000E0C02003A
:1017B00000000000810378004806200011000900A5
:1017C0008883D8000E0C020000000000810378001E
:1017D000A8002000110009008883D8000E0C020028
:1017E000000000000980A60005003700D00220009C
:1017F0002322AF00FEFF3700201188000980A100DE
:101800000003200000C04000500188002322AF00E8
:10181000FEFF370020118800220037000603200059
:101820000000E0000E003A0005E0A60016003700B8
:101830000402E9000524E100020032004200AF008A
:10184000000006000000E00005003A0005E0A600E8
:101850000D00370005F0A600060220000A00370040
:1018600005E0A1000980A600070037000005780008
:10187000D00220002322AF00FEFF37002011880095
:101880000980A1000A00780000404300811F780011
:101890002322AF00FEFF370020118800CF00780020
:1018A000000006002501200003000900CF12780087
:1018B000CF02780000000600851F780082017800C2
:1018C000820278004200A9008381D2000380FD00DB
:1018D000F30FB20003003A006000B8006011B800D6
:1018E000160037000338B000F207B20036002000BF
:1018F0000002EB004200A9000281D3008180D300E6
:101900000080D3004200AF000402E8000603E900B3
:10191000F8FF3A000270A100C419DD0003F0A10035
:1019200005F0A70003F0A000830169000101780021
:1019300080007800810042000000EB00CF027800B8
:1019400000000600851F7800C50020000500090082
:10195000B51F780003047800820378000103780043
:1019600080027800830478003B472000C499DE00A1
:10197000FA7F20008301650083855500F801B200DD
:101980000840A0000000EB008000EB000001EB002D
:101990008001EB004200A9000884D3008783D300B4
:1019A0000683D3008582D3008381D3000281D300D4
:1019B0008180D3000080D3008B05E900F5FF3A0059
:1019C00009F0A600050037000000EA008180EA0067
:1019D0000281EA008381EA000000370065012000EF
:1019E00005000900CF127800CF0278000000060041
:1019F0008C1F78008D1F78000004EB008004EB0042
:101A00000005EB008005EB000006EB008006EB0014
:101A1000E8002000090020001000FA000C377C00CC
:101A20000884E900FDFF3B0005046A0002003A005B
:101A300007046B002F0032000004EB000D042000AF
:101A40000D0420004200A9000080D2008180D20055
:101A50000281D2008381D2000884D2008984D2001E
:101A60000A85D2008B85D2000758E10005003A00B4
:101A700006D0E10003003A0005C8E10001003A0089
:101A800004C0E100050039000404540085845C00B2
:101A900006055D0087855D004200A800080F7800FC
:101AA000190798002A0798003B0798004E049000F9
:101AB000DE0490006E059000FE0590000884D200C0
:101AC0008984D2000A85D2008B85D200480798000D
:101AD000590798006A0798007B0798001E04780051
:101AE0009E0490002E059000BE0590008D06E90032
:101AF000D4FF3A004E009000DE0090006E0190008E
:101B0000FE0190000080FA0000003700CF06780048
:101B10004F06780000000600851F7800C5002000F1
:101B200007000900B51F78002A00FA00880220008B
:101B30000006EB000C377C000884E900FDFF3B0049
:101B40000900E0000E003200391798004A1798008B
:101B5000470224000003EB006022B8002917980018
:101B6000470224000003EB006022B800D207020005
:101B700000000000AE1490008904E900F7FF3A006D
:101B8000BE1490004801200028179800D71C24009C
:101B900056D62C006022B800000F9800110F980054
:101BA000220F9800330F9800480120000817980072
:101BB00004002000859E28004630220077AC2800D3
:101BC000440F9800550F9800660F9800770F980003
:101BD00003F0A600040037004E1490000804E9004A
:101BE00008D0A0004817980003F0A100A20C020042
:101BF000000000004E149000BE1490000900E000A8
:101C00004220AF000844E800481798009E14900056
:101C10008004EB00191798004E0A9000DE0A90002D
:101C20006E0B9000FE0B9000F80C0200000000000C
:101C30009E1690000D00A70062003700080F980064
:101C4000190F98002A0F98003B0F98009E169000DD
:101C50000D00A2001D1798000000E00012003A00DD
:101C6000BE1490008904E8002E1590000904550068
:101C70000D003200CE1590000B00E0000E00320087
:101C80007F846500080455000100320041003100E6
:101C90000BF0A7003F0037000BE0A700060037005D
:101CA0000002200037003700CE1590000C00220003
:101CB0008B0566004B179800CE1590000BD0A60040
:101CC0000F0037000BD0A100BE1490000900E00007
:101CD0004220AE008B05E9008005EB004B17980011
:101CE000000578002322AF00FEFF3700D402200059
:101CF000241188000A0078008005EB004B1798003B
:101D0000BE1490002E159000090455000C003A00F6
:101D10008005EB004B179800000578002322AF00E8
:101D2000FEFF3700E402200024118800CE15900049
:101D30000C0022008B0566004B1798000A00780003
:101D400001032000CE1590000BD0A6000D00370037
:101D50000BD0A100BE1490000900E0004220AE00AC
:101D60008B05E9008005EB004B1798002322AF009C
:101D7000FEFF3700D4022000241188000000EB0091
:101D800001032000008040002322AF00FEFF370047
:101D900020118800AE1690008D06E900190032006F
:101DA0002D1798004E089000DE0890006E099000F4
:101DB000FE099000A40020008002EB006033B80010
:101DC00099FF3700400F9800510F9800620F98005C
:101DD000730F9800000278008102780002037800F7
:101DE000830378000E0890009E0890002E09900052
:101DF000BE0990009E1690000D00A2001D179800CD
:101E000089FF37000080FA00A501200007000900C3
:101E1000CF127800CF02780000000600851F7800FE
:101E2000861F780018A9EF00F4408000A4C2B20019
:101E30001D003A001FC8BF000000FB000403200083
:101E4000840250004406200004A8B90080027800F3
:101E500020C8BF000000FB00040320000403500062
:101E6000060278006A20B8008502400021C8BF0041
:101E70000000FB000003B10005004000C0488800DE
:101E80001441800034C2B20004003A001809F8007E
:101E90000000F900060037000200370000A0EF0044
:101EA000030037000200370000A0EF0000003700F9
:101EB0004F037800CF027800000006001829EF00D9
:101EC00004002400D4488800CA0602000000000074
:101ED0001829EF0004002400D4488800E606020018
:101EE00000000000D4CC2C00C4488800C4052400A5
:101EF000D44888000207020000000000D4CC2C0067
:101F0000C4488800C4052400D44888001E07020085
:101F100000000000000006001829EF000400240063
:101F2000D4488800CA060200000000001829EF000B
:101F300004002400D4488800E606020000000000E7
:101F40001829EF0004F82300D44888000207020093
:101F5000000000001829EF0004F82300D44888008E
:101F60001E0702000000000000000600D4CC2C0078
:101F7000C4488800C4052400D4488800CA0602006A
:101F800000000000D4CC2C00C4488800C405240004
:101F9000D4488800E6060200000000001829EF007F
:101FA00004002400D448880002070200000000005A
:101FB0001829EF0004002400D44888001E070200FE
:101FC00000000000000006001829EF0004F82300BC
:101FD000D4488800CA060200000000001829EF005B
:101FE00004F82300D4488800E60602000000000040
:101FF0001829EF0004002400D448880002070200DA
:10200000000000001829EF0004002400D4488800D4
:102010001E0702000000000000000600D4CC2C00C7
:10202000C4488800C4052400D4488800CA060200B9
:1020300000000000D4CC2C00C4488800C405240053
:10204000D4488800E606020000000000F451280091
:10205000C4488800B4032400D44888000207020062
:1020600000000000F4512800C4488800B403240094
:10207000D44888001E07020000000000000006008F
:10208000D4CC2C00C4488800C4052400D44888005F
:10209000CA06020000000000D4CC2C00C44888000E
:1020A000C4052400D4488800E606020000000000B1
:1020B0001829EF0004F82300D44888000207020022
:1020C000000000001829EF0004F82300D44888001D
:1020D0001E07020000000000000006001829EF00A3
:1020E00004F82300D4488800CA060200000000005B
:1020F0001829EF0004F82300D4488800E6060200FF
:1021000000000000D4CC2C00C4488800C405240082
:10211000D44888000207020000000000D4CC2C0044
:10212000C4488800C4052400D44888001E07020063
:1021300000000000000006001829EF0004F823004A
:10214000D4488800CA060200000000001829EF00E9
:1021500004F82300D4488800E606020000000000CE
:102160001829EF0004F82300D44888000207020071
:10217000000000001829EF0004F82300D44888006C
:102180001E0702000000000000000600404424007A
:1021900040058800404424006005880081E0A800D4
:1021A0006004200042E7B7007005200042E7B70056
:1021B00042C7A90030F02100A4A6B700B0F021006A
:1021C000A6A6B70030002000C2A6B700002021005C
:1021D000C4A6B70030412100C6A6B7005061210057
:1021E000C8A6B70050002000CAA6B70060042000AF
:1021F00042E7B7007005200042E7B70042C7A800D9
:102200004427EF0004002800041188000440200047
:10221000141188002062A900940120004411880054
:1022200002A8EF0044062000244088000628EF00A2
:102230000828EF000A28EF000C28EF000E28EF0016
:102240001428EF001628EF001828EF001A28EF00D6
:102250001C28EF002CA3EF000F782200F07F220053
:1022600020A0B700000000000028EF000F78220037
:10227000F07F220020A0B7000000000041E2A9008A
:1022800061E2A90040A7A9000421EF0002A1EF002C
:1022900004012A002408880004002800241988006A
:1022A000040E280004198800E4FF2F006419880038
:1022B0002223EF001021EF0004F4210064088800BD
:1022C00004002A008408880064002000240C880090
:1022D00064002000540C880064002000840C8800F6
:1022E00064002000B40C880064002000E40C880026
:1022F0000100200001007800000202000000000040
:102300008100E800811F78002322AF00FEFF370024
:1023100020118800CF007800000120000008E600AE
:10232000F4FF3700800C2000F002020000000000E3
:1023300001002000010078001E02020000000000E1
:102340008100E800811F78002322AF00FEFF3700E4
:1023500020118800CF007800300120000008E6003E
:10236000F4FF37002823EF0003000900301180003C
:102370008560A9009560A80063C0A8009660A800C9
:1023800081E0A9004220EF0081E0A8003A070200A6
:1023900000000000401F2000F002020000000000CA
:1023A0002003A9002023A8002003AE00FEFF370071
:1023B0000003F8000808F9000A28EF003E1C090095
:1023C00000000000FF3F090000000000FF3F09007F
:1023D00000000000404080005140800002002000CA
:1023E000030020006E0702000000000000027800D9
:1023F000810278000203780083037800D0A62100D0
:10240000016D2A0012D02600A3F62300D207020095
:1024100000000000E20802000000000061408800A7
:1024200072408800920A020000000000D04088003C
:10243000E1408800D0408000E140800002002000A0
:1024400043242400FA0A02000000000002003900C0
:102450003A0702000000000001002000010078009F
:1024600040020200000000008100E800811F7800A7
:102470002322AF00FEFF370020118800CF00780034
:10248000300020000008E600F4FF37001040800014
:1024900004002000620B0200000000006100200028
:1024A0000100780040020200000000008100E80006
:1024B000811F78002322AF00FEFF37002011880023
:1024C000CF007800100120000008E600F4FF37007C
:1024D0007240800061408000000020005C0C02001F
:1024E00000000000390020004A0020008C0D02008E
:1024F000000000007101200001007800400202008D
:10250000000000008100E800811F78002322AF0056
:10251000FEFF370020118800CF007800A0012000C6
:102520000008E600F4FF3700E2408000D140800060
:10253000000020005C0C02000000000019002000D8
:102540002A0020008C0D0200000000002322AF00B2
:10255000FEFF370004022000241188002322AF0070
:10256000FEFF3700D4002000241188004006200020
:10257000F0020200000000000E0F02000000000048
:1025800010408800104080001080B200150032001A
:102590003080B200160032002080B20017003200F6
:1025A0004080B200180032007080B2001900320082
:1025B0006080B2001A0032003080B2001B0032008E
:1025C0001080B2001C003200F080B2001D0032000A
:1025D000C086B2001E003200E086B2002D0032003C
:1025E0005A0037005E0F020000000000580037005C
:1025F0008C0F020000000000550037003A0702006F
:102600000000000052003700B60F0200000000007A
:102610004F003700E40F0200000000004C003700BC
:102620000E100200000000004900370040100200B8
:1026300000000000460037006E100200000000009D
:10264000430037009C1002000000000040003700EB
:10265000803E2000F0020200000000000100200087
:102660000100780070020200000000008100E80014
:10267000811F78002322AF00FEFF37002011880061
:10268000CF007800300120000008E600F4FF37009A
:102690002F003700404080005140800002002000A1
:1026A000030020006E070200000000000002780016
:1026B000810278000203780083037800D0A621000D
:1026C000016D2A0012D02600A3F62300D2070200D3
:1026D00000000000E20802000000000061408800E5
:1026E0007240880001002000010078009202020080
:1026F000000000008100E800811F78002322AF0065
:10270000FEFF370020118800CF00780080002000F5
:102710000008E600F4FF370072408000614080004E
:10272000000020005C0C02000000000039002000C6
:102730004A0020008C0D020000000000803E2000B6
:10274000F002020000000000010037000000370026
:0827500013FF37000040FE00FA
:020000040001F9
:0857F800D7F800FF7F2F00FF2E
:00000001FF
;PIC24FJ64GA002
;CRC=426B  CREATED="15-Eki-14 15:38"
